:100000000C9444000C9456000C9456000C9456002A
:100010000C9456000C9456000C9456000C94560008
:100020000C9456000C9456000C9456000C94CA0084
:100030000C9456000C9456000C9456000C945600E8
:100040000C9456000C9456000C9456000C945600D8
:100050000C9456000C9456000C9456000C945600C8
:100060000C9456000C945600C70097009A009D000F
:10007000A000A300A600A900AC00AF00B200B5002C
:10008000B800BB00BE00C10011241FBECFEFD8E0F6
:10009000DEBFCDBF21E0A0E0B1E001C01D92A630DF
:1000A000B207E1F70E9458000C9436010C9400004E
:1000B0008EEF8AB987E084B98FE387B9F8941092FC
:1000C00080008BE08093810082E080936F0080E16C
:1000D00090E09093890080938800789421E080914B
:1000E0000501882319F0813081F0F9CF8091010159
:1000F000909102018F3F9F4791F7809103018F5F9D
:100100008093030120930501EACF80910101909132
:1001100002018115904819F710920501E0CF803156
:10012000910590F5FC01EC5CFF4F0C94300180E3ED
:1001300090E008958DE690E0089589E790E00895B5
:1001400083E390E008958BE590E008958FE590E0DB
:10015000089580E790E008958FE790E0089583E7A1
:1001600090E0089587E790E008958FE190E008958A
:100170008EE490E008958DE390E008958FE490E0A0
:10018000089587E490E0089580E090E008958EE778
:1001900090E008951F920F920FB60F9211242F93A3
:1001A0003F934F935F936F937F938F939F93AF93FF
:1001B000BF93EF93FF938091010190910201880F0B
:1001C000991F909302018093010189B1811109C0A7
:1001D00080910101909102018160909302018093CE
:1001E000010180910401882359F0289A299880916F
:1001F00003018F7090E00E948F00809300010BC07C
:100200002898299A8091030182958F7090E00E942E
:100210008F008093000180910001829586958695DC
:10022000837011F02A9A01C02A98809100018F737F
:1002300088B99091040181E0892780930401FF919E
:10024000EF91BF91AF919F918F917F916F915F914E
:100250004F913F912F910F900FBE0F901F901895C7
:10026000EE0FFF1F0590F491E02D0994F894FFCF55
:00000001FF
