S00C00004C6162322E73726563D7
S11300000C9434000C943E000C943E000C943E007E
S11300100C943E000C943E000C943E000C943E0064
S11300200C943E000C943E000C943E000C94400052
S11300300C943E000C943E000C943E000C943E0044
S11300400C943E000C943E000C943E000C943E0034
S11300500C943E000C943E000C943E000C943E0024
S11300600C943E000C943E0011241FBECFEFD8E048
S1130070DEBFCDBF0E9454000C946E000C940000AF
S11300801F920F920FB60F9211248F939F93F8949F
S113009095B181E0892785B978949F918F910F90CC
S11300A00FBE0F901F9018951AB887E084B98FE39C
S11300B087B9259AF89480E4809380008CE080933B
S11300C0810082E080936F0084E294EF9093890032
S11300D08093880081E085B97894FFCFF894FFCFAE
S9030000FC
