S00C00004C6162322E73726563D7
S11300000C9444000C9456000C9456000C94560026
S11300100C9456000C9456000C9456000C94560004
S11300200C9456000C9456000C9456000C94A900A1
S11300300C9456000C9456000C9456000C945600E4
S11300400C9456000C9456000C9456000C945600D4
S11300500C9456000C9456000C9456000C945600C4
S11300600C9456000C945600A600760079007C008F
S11300707F008200850088008B008E009100940030
S113008097009A009D00A00011241FBECFEFD8E076
S1130090DEBFCDBF21E0A0E0B1E001C01D92A430DD
S11300A0B207E1F70E9458000C941D010C94000063
S11300B01AB887E084B98FE387B9F8941092800066
S11300C08CE08093810082E080936F0081E792E06E
S11300D090938900809388007894FFCF80319105B4
S11300E090F5FC01EC5CFF4F0C94170180E390E069
S11300F008958DE690E0089589E790E0089583E3FC
S113010090E008958BE590E008958FE590E00895E0
S113011080E790E008958FE790E0089583E790E00A
S1130120089587E790E008958FE190E008958EE4C4
S113013090E008958DE390E008958FE490E00895B1
S113014087E490E0089580E090E008958EE790E0E1
S113015008951F920F920FB60F9211242F933F937D
S11301604F935F936F937F938F939F93AF93BF93BB
S1130170EF93FF938091000190910101892B79F015
S1130180289A299889B190E0809590958F70992745
S11301900E946E00909303018093020116C0289878
S11301A0299A89B190E08095909595958795959534
S11301B0879595958795959587958F7099270E9432
S11301C06E0090930301809302018091020190914B
S11301D00301082E892F000C881F990B000C881F1F
S11301E0991F892B11F02A9A01C02A988091020143
S11301F0909103018F7388B980910001909101015E
S113020021E082279093010180930001FF91EF91F7
S1130210BF91AF919F918F917F916F915F914F911A
S11302203F912F910F900FBE0F901F901895EE0FD6
S1110230FF1F0590F491E02D0994F894FFCF80
S9030000FC
