:100000000C9444000C9456000C9456000C9456002A
:100010000C9456000C9456000C9456000C94560008
:100020000C9456000C9456000C9456000C945800F6
:100030000C9456000C9456000C9456000C945600E8
:100040000C9456000C9456000C9456000C945600D8
:100050000C9456000C9456000C9456000C945600C8
:100060000C9456000C945600AC007C007F0082007B
:10007000850088008B008E009100940097009A0004
:100080009D00A000A300A60011241FBECFEFD8E062
:10009000DEBFCDBF21E0A0E0B1E001C01D92A230E3
:1000A000B207E1F70E94AF000C94ED000C94000041
:1000B0001F920F920FB60F9211248F939F93F89473
:1000C00089B182958F7090E0909301018093000137
:1000D00095B181E0892785B978949F918F910F9090
:1000E0000FBE0F901F9018958031910590F5FC017F
:1000F000EC5CFF4F0C94E70080E390E008958DE600
:1001000090E0089589E790E0089583E390E00895F2
:100110008BE590E008958FE590E0089580E790E00A
:10012000089580E090E0089583E790E0089587E7E0
:1001300090E008958FE190E008958EE490E00895B6
:100140008DE390E008958FE490E0089587E490E0D7
:10015000089580E090E008958EE790E008951AB841
:1001600087E084B98FE387B9259AF89480E4809377
:1001700080008CE08093810082E080936F0084E2B5
:1001800094EF909389008093880081E085B97894FA
:1001900080910001909101010E94740028B18F7339
:1001A0009927822B88B980910001909101010E94CA
:1001B000740025B195958795959587959595879523
:1001C0009595879584709927822B85B9E1CFEE0F9D
:0E01D000FF1F0590F491E02D0994F894FFCFE5
:00000001FF
