:100000000C9444000C9456000C9456000C9456002A
:100010000C9456000C9456000C9456000C94560008
:100020000C9456000C9456000C9456000C94C2008C
:100030000C9456000C9456000C9456000C945600E8
:100040000C9456000C9456000C9456000C945600D8
:100050000C9456000C9456000C9456000C945600C8
:100060000C9456000C945600BF008F00920095002F
:1000700098009B009E00A100A400A700AA00AD006C
:10008000B000B300B600B90011241FBECFEFD8E016
:10009000DEBFCDBF21E0A0E0B1E001C01D92A830DD
:1000A000B207E1F70E9458000C9436010C9400004E
:1000B0008EEF8AB987E084B98FE387B9F8941092FC
:1000C00080008CE08093810082E080936F008EE35B
:1000D00090E0909389008093880078948091060145
:1000E00090910701019761F489B1811109C0809154
:1000F0000201909103010196909303018093020104
:1001000089B190E09093070180930601E7CF803199
:10011000910590F5FC01EC5CFF4F0C94300180E3FD
:1001200090E008958DE690E0089589E790E00895C5
:1001300083E390E008958BE590E008958FE590E0EB
:10014000089580E790E008958FE790E0089583E7B1
:1001500090E0089587E790E008958FE190E008959A
:100160008EE490E008958DE390E008958FE490E0B0
:10017000089587E490E0089580E090E008958EE788
:1001800090E008951F920F920FB60F9211242F93B3
:100190003F934F935F936F937F938F939F93AF930F
:1001A000BF93EF93FF938091040190910501892BF8
:1001B00079F0289A299880910201909103018F701B
:1001C00099270E948700909301018093000116C037
:1001D0002898299A8091020190910301959587951D
:1001E0009595879595958795959587958F7099277E
:1001F0000E9487009093010180930001809100018B
:1002000090910101082E892F000C881F990B000C7A
:10021000881F991F892B11F02A9A01C02A98809172
:100220000001909101018F7388B980910401909130
:10023000050121E082279093050180930401FF913D
:10024000EF91BF91AF919F918F917F916F915F914E
:100250004F913F912F910F900FBE0F901F901895C7
:10026000EE0FFF1F0590F491E02D0994F894FFCF55
:00000001FF
