S01200004C6162355F736C6176652E7372656354
S11300000C943E000C9450000C9450000C9450003E
S11300100C9450000C9450000C9450000C9450001C
S11300200C9450000C9450000C9450000C94E90073
S11300300C9450000C9450000C9450000C945000FC
S11300400C9450000C9450000C9474000C945000C8
S11300500C9450000C9450000C9450000C945000DC
S11300600C9450000C945000E201E701ED01F301FF
S1130070F901FF0105020B021102160211241FBE31
S1130080CFEFD8E0DEBFCDBF21E0A0E0B1E001C0FA
S11300901D92A630B207E1F70E9452000C94500260
S11300A00C9400008FE387B98CED8AB9109280001C
S11300B08CE08093810082E080936F008EE390E077
S11300C0909389008093880081E08093C00084E944
S11300D08093C10086E08093C20083E08093C400D3
S11300E01092C5007894FFCF1F920F920FB60F9213
S11300F011242F933F938F939F93EF93FF938091BA
S1130100C600803151F4E0ECF0E080818E7F808382
S1130110809102018F5F80930201809102018330FC
S113012011F128F4813041F0823081F047C08430ED
S113013021F18530C1F142C08091C6008130F1F5D2
S1130140809102018F5F8093020138C08091C600C4
S113015090E09093040180930301809102018F5FEA
S1130160809302012BC08091C600823039F58091C2
S113017002018F5F8093020121C09091C6002091FB
S1130180030130910401892F90E0982F8827820F72
S1130190931F9093040180930301809102018F5F68
S11301A0809302010BC08091C6008F3F39F41092F6
S11301B00201E0ECF0E0808181608083FF91EF91A7
S11301C09F918F913F912F910F900FBE0F901F9091
S11301D018951F920F920FB60F9211242F933F93ED
S11301E04F935F936F937F938F939F93AF93BF933B
S11301F0EF93FF9380910101880F880F836A8BB975
S113020080910101823009F452C038F4882309F442
S1130210B2C0813009F47AC0C5C0833011F1843092
S113022009F0C0C040910301509104019A01ADEC62
S1130230BCEC0E9441029695879596958795969574
S113024087959C01220F331F880F991F880F991FD0
S1130250880F991F820F931F481B590B409300016D
S1130260A4C040910301509104019A013695279549
S113027036952795ABE7B4E10E94410296958795A0
S113028064E6689F9001699F300D1124CA01821BA6
S1130290930B9C01ADECBCEC0E94410296958795B2
S11302A09695879596958795809300017EC0409199
S11302B00301509104019A013695279536952795A7
S11302C036952795A5ECB0E20E944102929582955D
S11302D08F7089279F70892768EE73E0869F90014D
S11302E0879F300D969F300D1124CA01821B930BFA
S11302F09C013695279536952795ABE7B4E10E9486
S1130300410296958795809300014FC04091030167
S1130310509104019A01329522952F7023273F7042
S11303202327A7E4B3E00E9441029695879596950A
S113033087959695879560E177E2869F9001879FE0
S1130340300D969F300D1124CA01821B930B9C0122
S1130350369527953695279536952795A5ECB0E2E1
S11303600E944102929582958F7089279F708927F8
S1130370809300011AC02091030130910401329549
S113038022952F7023273F702327A7E4B3E00E9410
S1130390410296958795969587959695879580932E
S11303A0000103C0109200010DC0E09100018E2FE6
S11303B090E08A30910508F03FC0FC01EC5CFF4FEF
S11303C00C943B025F9888B18F6388B939C05F98F9
S11303D088B1807C866088B933C05F9A88B1807C9C
S11303E08B6188B92DC05F9A88B1807C8F6088B991
S11303F027C05F9A88B1807C866288B921C05F9AE1
S113040088B1807C8D6288B91BC05F9A88B1807C7A
S11304108D6388B915C05F9888B1807C876088B97E
S11304200FC05F9A88B18F6388B90AC05F9A88B198
S1130430807C876288B904C05F9888B18F6388B96B
S113044080910101843020F48F5F8093010102C008
S113045010920101FF91EF91BF91AF919F918F9104
S11304607F916F915F914F913F912F910F900FBEAC
S11304700F901F901895EE0FFF1F0590F491E02D3B
S11304800994A29FB001B39FC001A39F700D811D69
S11304901124911DB29F700D811D1124911D089589
S10704A0F894FFCFFA
S9030000FC
