:100000000C9434000C9446000C9446000C9446006A
:100010000C9446000C9446000C9446000C94460048
:100020000C9446000C9446000C9446000C94460038
:100030000C9446000C9446000C9446000C94460028
:100040000C9446000C9448000C9446000C94460016
:100050000C9446000C9446000C9446000C94460008
:100060000C9446000C94460011241FBECFEFD8E03C
:10007000DEBFCDBF21E0A0E0B1E001C01D92A13004
:10008000B207E1F70E945E000C947A000C94000025
:100090001F920F920FB60F9211248F93599A59986D
:1000A0008EB5809300015898589A809100018EBDBA
:1000B0008F910F900FBE0F901F90189587E08AB90F
:1000C0008CE284B980E287B983ED8CBDF8941092FC
:1000D00080008CE08093810082E080936F0084E256
:1000E00094EF909389008093880078948091000128
:0800F0008EBDFFCFF894FFCF95
:00000001FF
