:100000000C9444000C9456000C9456000C9456002A
:100010000C9456000C9456000C9456000C94560008
:100020000C9456000C9456000C9456000C94AC00A2
:100030000C9456000C9456000C9456000C945600E8
:100040000C9456000C9456000C9456000C945600D8
:100050000C9456000C9456000C9456000C945600C8
:100060000C9456000C945600A90079007C007F0087
:100070008200850088008B008E009100940097001C
:100080009A009D00A000A30011241FBECFEFD8E06E
:10009000DEBFCDBF21E0A0E0B1E001C01D92A230E3
:1000A000B207E1F70E9458000C9400010C94000084
:1000B0008FEE8AB987E084B99FE397B9F8941092DC
:1000C00080009CE09093810092E090936F002EE37B
:1000D00030E0309389002093880014BC85BD78946B
:1000E000FFCF8031910590F5FC01EC5CFF4F0C9443
:1000F000FA0080E390E008958DE690E0089589E7A6
:1001000090E0089583E390E008958BE590E00895F2
:100110008FE590E0089580E790E008958FE790E004
:10012000089583E790E0089587E790E008958FE1D0
:1001300090E008958EE490E008958DE390E00895B6
:100140008FE490E0089587E490E0089580E090E0E7
:1001500008958EE790E008951F920F920FB60F92C8
:1001600011242F933F934F935F936F937F938F93BC
:100170009F93AF93BF93EF93FF93809101018823E7
:1001800051F0289A299886B58F7090E00E947100EE
:10019000809300010AC02898299A86B582958F70AD
:1001A00090E00E947100809300018091000182958F
:1001B00086958695837011F02A9A01C02A988091BD
:1001C00000018F7388B99091010181E089278093A4
:1001D0000101FF91EF91BF91AF919F918F917F911D
:1001E0006F915F914F913F912F910F900FBE0F90A4
:1001F0001F901895EE0FFF1F0590F491E02D0994C4
:04020000F894FFCFA0
:00000001FF
